{
  "contractName": "Defi",
  "abi": [
    {
      "inputs": [],
      "stateMutability": "nonpayable",
      "type": "constructor"
    },
    {
      "inputs": [],
      "name": "INVERSE_BASIS_POINT",
      "outputs": [
        {
          "internalType": "uint256",
          "name": "",
          "type": "uint256"
        }
      ],
      "stateMutability": "view",
      "type": "function",
      "constant": true
    },
    {
      "inputs": [
        {
          "internalType": "address",
          "name": "",
          "type": "address"
        }
      ],
      "name": "borrowers",
      "outputs": [
        {
          "internalType": "uint256",
          "name": "",
          "type": "uint256"
        }
      ],
      "stateMutability": "view",
      "type": "function",
      "constant": true
    },
    {
      "inputs": [],
      "name": "gasPrice",
      "outputs": [
        {
          "internalType": "uint256",
          "name": "",
          "type": "uint256"
        }
      ],
      "stateMutability": "view",
      "type": "function",
      "constant": true
    },
    {
      "inputs": [
        {
          "internalType": "address",
          "name": "",
          "type": "address"
        }
      ],
      "name": "investors",
      "outputs": [
        {
          "internalType": "uint256",
          "name": "",
          "type": "uint256"
        }
      ],
      "stateMutability": "view",
      "type": "function",
      "constant": true
    },
    {
      "inputs": [],
      "name": "owner",
      "outputs": [
        {
          "internalType": "address",
          "name": "",
          "type": "address"
        }
      ],
      "stateMutability": "view",
      "type": "function",
      "constant": true
    },
    {
      "inputs": [],
      "name": "makeDeposit",
      "outputs": [],
      "stateMutability": "payable",
      "type": "function",
      "payable": true
    },
    {
      "inputs": [
        {
          "internalType": "address",
          "name": "receiverAddr",
          "type": "address"
        }
      ],
      "name": "borrow",
      "outputs": [],
      "stateMutability": "payable",
      "type": "function",
      "payable": true
    },
    {
      "inputs": [],
      "name": "payBack",
      "outputs": [],
      "stateMutability": "payable",
      "type": "function",
      "payable": true
    },
    {
      "inputs": [
        {
          "internalType": "address",
          "name": "receiverAddr",
          "type": "address"
        }
      ],
      "name": "recoup",
      "outputs": [],
      "stateMutability": "payable",
      "type": "function",
      "payable": true
    },
    {
      "inputs": [
        {
          "internalType": "address",
          "name": "user",
          "type": "address"
        }
      ],
      "name": "getMyDebt",
      "outputs": [
        {
          "internalType": "uint256",
          "name": "",
          "type": "uint256"
        }
      ],
      "stateMutability": "view",
      "type": "function",
      "constant": true
    },
    {
      "inputs": [
        {
          "internalType": "address",
          "name": "user",
          "type": "address"
        }
      ],
      "name": "getMyDeposit",
      "outputs": [
        {
          "internalType": "uint256",
          "name": "",
          "type": "uint256"
        }
      ],
      "stateMutability": "view",
      "type": "function",
      "constant": true
    }
  ],
  "bytecode": "0x608060405234801561001057600080fd5b50606460008190555033600460006101000a81548173ffffffffffffffffffffffffffffffffffffffff021916908373ffffffffffffffffffffffffffffffffffffffff16021790555064199c82cc00600181905550610d4f806100756000396000f3fe60806040526004361061009c5760003560e01c806340732c891161006457806340732c891461015d5780636f7bc9be146101675780638da5cb5b146101a4578063bf5d50c4146101cf578063cae6047f1461020c578063fe173b97146102375761009c565b8063019f64cc146100a15780630a879e45146100ab57806311847873146100c757806326986aa8146101045780633f0ead0214610141575b600080fd5b6100a9610262565b005b6100c560048036038101906100c09190610a00565b61049c565b005b3480156100d357600080fd5b506100ee60048036038101906100e99190610a00565b6106c2565b6040516100fb9190610a46565b60405180910390f35b34801561011057600080fd5b5061012b60048036038101906101269190610a00565b61070b565b6040516101389190610a46565b60405180910390f35b61015b60048036038101906101569190610a00565b610754565b005b61016561087d565b005b34801561017357600080fd5b5061018e60048036038101906101899190610a00565b61093b565b60405161019b9190610a46565b60405180910390f35b3480156101b057600080fd5b506101b9610953565b6040516101c69190610a70565b60405180910390f35b3480156101db57600080fd5b506101f660048036038101906101f19190610a00565b610979565b6040516102039190610a46565b60405180910390f35b34801561021857600080fd5b50610221610991565b60405161022e9190610a46565b60405180910390f35b34801561024357600080fd5b5061024c610997565b6040516102599190610a46565b60405180910390f35b600061271060016102739190610ae9565b600360003373ffffffffffffffffffffffffffffffffffffffff1673ffffffffffffffffffffffffffffffffffffffff168152602001908152602001600020546102bd9190610b1a565b90506000600360003373ffffffffffffffffffffffffffffffffffffffff1673ffffffffffffffffffffffffffffffffffffffff16815260200190815260200160002054111561045e5734600360003373ffffffffffffffffffffffffffffffffffffffff1673ffffffffffffffffffffffffffffffffffffffff168152602001908152602001600020541061041e57600460009054906101000a900473ffffffffffffffffffffffffffffffffffffffff1673ffffffffffffffffffffffffffffffffffffffff166108fc82346103959190610b5c565b9081150290604051600060405180830381858888f193505050506103b857600080fd5b80346103c49190610b5c565b600360003373ffffffffffffffffffffffffffffffffffffffff1673ffffffffffffffffffffffffffffffffffffffff16815260200190815260200160002060008282546104129190610b90565b92505081905550610459565b6040517f08c379a000000000000000000000000000000000000000000000000000000000815260040161045090610c21565b60405180910390fd5b610499565b6040517f08c379a000000000000000000000000000000000000000000000000000000000815260040161049090610c8d565b60405180910390fd5b50565b600061271060016104ad9190610ae9565b600260008473ffffffffffffffffffffffffffffffffffffffff1673ffffffffffffffffffffffffffffffffffffffff168152602001908152602001600020546104f79190610b1a565b90506000600260008473ffffffffffffffffffffffffffffffffffffffff1673ffffffffffffffffffffffffffffffffffffffff1681526020019081526020016000205411156106835734600260008473ffffffffffffffffffffffffffffffffffffffff1673ffffffffffffffffffffffffffffffffffffffff1681526020019081526020016000205410610643578173ffffffffffffffffffffffffffffffffffffffff166108fc60015483346105b09190610b5c565b6105ba9190610b90565b9081150290604051600060405180830381858888f193505050506105dd57600080fd5b80346105e99190610b5c565b600260008473ffffffffffffffffffffffffffffffffffffffff1673ffffffffffffffffffffffffffffffffffffffff16815260200190815260200160002060008282546106379190610b90565b9250508190555061067e565b6040517f08c379a000000000000000000000000000000000000000000000000000000000815260040161067590610c21565b60405180910390fd5b6106be565b6040517f08c379a00000000000000000000000000000000000000000000000000000000081526004016106b590610cf9565b60405180910390fd5b5050565b6000600260008373ffffffffffffffffffffffffffffffffffffffff1673ffffffffffffffffffffffffffffffffffffffff168152602001908152602001600020549050919050565b6000600360008373ffffffffffffffffffffffffffffffffffffffff1673ffffffffffffffffffffffffffffffffffffffff168152602001908152602001600020549050919050565b8073ffffffffffffffffffffffffffffffffffffffff166108fc349081150290604051600060405180830381858888f1935050505061079257600080fd5b6000600360008373ffffffffffffffffffffffffffffffffffffffff1673ffffffffffffffffffffffffffffffffffffffff1681526020019081526020016000205411156108355734600360008373ffffffffffffffffffffffffffffffffffffffff1673ffffffffffffffffffffffffffffffffffffffff16815260200190815260200160002060008282546108299190610b5c565b9250508190555061087a565b34600360008373ffffffffffffffffffffffffffffffffffffffff1673ffffffffffffffffffffffffffffffffffffffff168152602001908152602001600020819055505b50565b6000349050600460009054906101000a900473ffffffffffffffffffffffffffffffffffffffff1673ffffffffffffffffffffffffffffffffffffffff166108fc829081150290604051600060405180830381858888f193505050506108e257600080fd5b80600260003373ffffffffffffffffffffffffffffffffffffffff1673ffffffffffffffffffffffffffffffffffffffff16815260200190815260200160002060008282546109319190610b5c565b9250508190555050565b60026020528060005260406000206000915090505481565b600460009054906101000a900473ffffffffffffffffffffffffffffffffffffffff1681565b60036020528060005260406000206000915090505481565b60005481565b60015481565b600080fd5b600073ffffffffffffffffffffffffffffffffffffffff82169050919050565b60006109cd826109a2565b9050919050565b6109dd816109c2565b81146109e857600080fd5b50565b6000813590506109fa816109d4565b92915050565b600060208284031215610a1657610a1561099d565b5b6000610a24848285016109eb565b91505092915050565b6000819050919050565b610a4081610a2d565b82525050565b6000602082019050610a5b6000830184610a37565b92915050565b610a6a816109c2565b82525050565b6000602082019050610a856000830184610a61565b92915050565b7f4e487b7100000000000000000000000000000000000000000000000000000000600052601260045260246000fd5b7f4e487b7100000000000000000000000000000000000000000000000000000000600052601160045260246000fd5b6000610af482610a2d565b9150610aff83610a2d565b925082610b0f57610b0e610a8b565b5b828204905092915050565b6000610b2582610a2d565b9150610b3083610a2d565b9250828202610b3e81610a2d565b91508282048414831517610b5557610b54610aba565b5b5092915050565b6000610b6782610a2d565b9150610b7283610a2d565b9250828201905080821115610b8a57610b89610aba565b5b92915050565b6000610b9b82610a2d565b9150610ba683610a2d565b9250828203905081811115610bbe57610bbd610aba565b5b92915050565b600082825260208201905092915050565b7f76616c756520697320686967686572207468656e206465627400000000000000600082015250565b6000610c0b601983610bc4565b9150610c1682610bd5565b602082019050919050565b60006020820190508181036000830152610c3a81610bfe565b9050919050565b7f5468657265206973206e6f742064656274000000000000000000000000000000600082015250565b6000610c77601183610bc4565b9150610c8282610c41565b602082019050919050565b60006020820190508181036000830152610ca681610c6a565b9050919050565b7f5468657265206973206e6f74207265636f757000000000000000000000000000600082015250565b6000610ce3601383610bc4565b9150610cee82610cad565b602082019050919050565b60006020820190508181036000830152610d1281610cd6565b905091905056fea2646970667358221220ff8e4bed7170b7d648f4e9624446f9e98c5ad78a6b0c62ada8b4ce34bca56f8a64736f6c63430008130033",
  "immutableReferences": {},
  "source": "// SPDX-License-Identifier: MIT\npragma solidity >=0.4.22 <0.9.0;\n\ncontract Defi {\n  // 1 ETH : 1000000000000000000\n  uint256 public INVERSE_BASIS_POINT;\n\n  uint256 constant INTEREST = 1;\n\n  uint public gasPrice;\n\n  mapping (address => uint) public investors;\n\n  mapping (address => uint) public borrowers;\n\n  address public owner;\t\t//  \n\n  constructor(){\n    INVERSE_BASIS_POINT = 100; // sol is not support float type yet.\n    owner = msg.sender;\n    gasPrice = 110000000000;\n  }\n\n  function makeDeposit() payable public {\n    uint deposit = msg.value;\n    if(!payable(owner).send(deposit)) {\n\t\t\trevert();\n\t\t}\n    investors[msg.sender] += deposit;\n  }\n\n  function borrow(address receiverAddr) payable public {\n    if(!payable(receiverAddr).send(msg.value)) {\n\t\t\trevert();\n\t\t}\n    if(borrowers[receiverAddr] > 0){\n      borrowers[receiverAddr] += msg.value;\n    }\n    else{\n      borrowers[receiverAddr] = msg.value;\n    }\n    \n  }\n\n  function payBack() payable public {\n    uint256 interestAmount = borrowers[msg.sender] * (INTEREST / 10000);\n    if(borrowers[msg.sender] > 0){ //    \n      if(borrowers[msg.sender] >= msg.value){ //        \n        if(!payable(owner).send(msg.value + interestAmount)) {\n\t\t\t    revert();\n\t\t    }\n        borrowers[msg.sender] -= (msg.value + interestAmount);\n      }\n      else{\n        revert(\"value is higher then debt\");\n      }\n    }\n    else{\n      revert(\"There is not debt\");\n    }\n  }\n\n  // gas price     ,    .\n  function recoup(address receiverAddr) payable public{\n    uint256 interestAmount = investors[receiverAddr] * (INTEREST / 10000);\n    if(investors[receiverAddr] > 0){ //    \n      if(investors[receiverAddr] >= msg.value){ //       \n        if(!payable(receiverAddr).send(msg.value + interestAmount - gasPrice)) {\n\t\t\t    revert();\n\t\t    }\n        investors[receiverAddr] -= (msg.value + interestAmount);\n      }\n      else{\n        revert(\"value is higher then debt\");\n      }\n    }\n    else{\n      revert(\"There is not recoup\");\n    }\n  }\n\n  function getMyDebt(address user) view public returns(uint){\n    return borrowers[user];\n  }\n\n  function getMyDeposit(address user) view public returns(uint){\n    return investors[user];\n  }\n}\n",
  "sourcePath": "/Users/chanhhoo/Desktop/workPlace/4-1class//assignment_code/contract/contracts/Defi.sol",
  "compiler": {
    "name": "solc",
    "version": "0.8.19+commit.7dd6d404.Emscripten.clang"
  },
  "schemaVersion": "3.4.13",
  "updatedAt": "2023-04-11T14:38:17.943Z",
  "networkType": "ethereum",
  "devdoc": {
    "kind": "dev",
    "methods": {},
    "version": 1
  },
  "userdoc": {
    "kind": "user",
    "methods": {},
    "version": 1
  }
}