{
  "contractName": "Defi",
  "abi": [
    {
      "inputs": [],
      "stateMutability": "nonpayable",
      "type": "constructor"
    },
    {
      "inputs": [],
      "name": "INVERSE_BASIS_POINT",
      "outputs": [
        {
          "internalType": "uint256",
          "name": "",
          "type": "uint256"
        }
      ],
      "stateMutability": "view",
      "type": "function",
      "constant": true
    },
    {
      "inputs": [
        {
          "internalType": "address",
          "name": "",
          "type": "address"
        }
      ],
      "name": "borrowers",
      "outputs": [
        {
          "internalType": "uint256",
          "name": "",
          "type": "uint256"
        }
      ],
      "stateMutability": "view",
      "type": "function",
      "constant": true
    },
    {
      "inputs": [],
      "name": "gasPrice",
      "outputs": [
        {
          "internalType": "uint256",
          "name": "",
          "type": "uint256"
        }
      ],
      "stateMutability": "view",
      "type": "function",
      "constant": true
    },
    {
      "inputs": [
        {
          "internalType": "address",
          "name": "",
          "type": "address"
        }
      ],
      "name": "investors",
      "outputs": [
        {
          "internalType": "uint256",
          "name": "",
          "type": "uint256"
        }
      ],
      "stateMutability": "view",
      "type": "function",
      "constant": true
    },
    {
      "inputs": [],
      "name": "owner",
      "outputs": [
        {
          "internalType": "address",
          "name": "",
          "type": "address"
        }
      ],
      "stateMutability": "view",
      "type": "function",
      "constant": true
    },
    {
      "inputs": [],
      "name": "makeDeposit",
      "outputs": [],
      "stateMutability": "payable",
      "type": "function",
      "payable": true
    },
    {
      "inputs": [
        {
          "internalType": "address",
          "name": "receiverAddr",
          "type": "address"
        }
      ],
      "name": "borrow",
      "outputs": [],
      "stateMutability": "payable",
      "type": "function",
      "payable": true
    },
    {
      "inputs": [],
      "name": "payBack",
      "outputs": [],
      "stateMutability": "payable",
      "type": "function",
      "payable": true
    },
    {
      "inputs": [
        {
          "internalType": "address",
          "name": "receiverAddr",
          "type": "address"
        }
      ],
      "name": "recoup",
      "outputs": [],
      "stateMutability": "payable",
      "type": "function",
      "payable": true
    },
    {
      "inputs": [],
      "name": "getMyDebt",
      "outputs": [
        {
          "internalType": "uint256",
          "name": "",
          "type": "uint256"
        }
      ],
      "stateMutability": "view",
      "type": "function",
      "constant": true
    },
    {
      "inputs": [],
      "name": "getMyDeposit",
      "outputs": [
        {
          "internalType": "uint256",
          "name": "",
          "type": "uint256"
        }
      ],
      "stateMutability": "view",
      "type": "function",
      "constant": true
    }
  ],
  "bytecode": "0x608060405234801561001057600080fd5b50606460008190555033600460006101000a81548173ffffffffffffffffffffffffffffffffffffffff021916908373ffffffffffffffffffffffffffffffffffffffff16021790555064199c82cc00600181905550610ae3806100756000396000f3fe60806040526004361061009c5760003560e01c80636f7bc9be116100645780636f7bc9be146101185780638da5cb5b14610155578063bf5d50c414610180578063cae6047f146101bd578063f4135992146101e8578063fe173b97146102135761009c565b8063019f64cc146100a15780630a879e45146100ab5780633f0ead02146100c757806340732c89146100e3578063450a375a146100ed575b600080fd5b6100a961023e565b005b6100c560048036038101906100c091906108e9565b610407565b005b6100e160048036038101906100dc91906108e9565b6105af565b005b6100eb6106d8565b005b3480156100f957600080fd5b50610102610796565b60405161010f919061092f565b60405180910390f35b34801561012457600080fd5b5061013f600480360381019061013a91906108e9565b6107dd565b60405161014c919061092f565b60405180910390f35b34801561016157600080fd5b5061016a6107f5565b6040516101779190610959565b60405180910390f35b34801561018c57600080fd5b506101a760048036038101906101a291906108e9565b61081b565b6040516101b4919061092f565b60405180910390f35b3480156101c957600080fd5b506101d2610833565b6040516101df919061092f565b60405180910390f35b3480156101f457600080fd5b506101fd610839565b60405161020a919061092f565b60405180910390f35b34801561021f57600080fd5b50610228610880565b604051610235919061092f565b60405180910390f35b6000612710600161024f91906109d2565b600360003373ffffffffffffffffffffffffffffffffffffffff1673ffffffffffffffffffffffffffffffffffffffff168152602001908152602001600020546102999190610a03565b90506000600360003373ffffffffffffffffffffffffffffffffffffffff1673ffffffffffffffffffffffffffffffffffffffff1681526020019081526020016000205411156104045734600360003373ffffffffffffffffffffffffffffffffffffffff1673ffffffffffffffffffffffffffffffffffffffff168152602001908152602001600020541061040357600460009054906101000a900473ffffffffffffffffffffffffffffffffffffffff1673ffffffffffffffffffffffffffffffffffffffff166108fc60015483346103749190610a45565b61037e9190610a45565b9081150290604051600060405180830381858888f193505050506103a157600080fd5b80346103ad9190610a45565b600360003373ffffffffffffffffffffffffffffffffffffffff1673ffffffffffffffffffffffffffffffffffffffff16815260200190815260200160002060008282546103fb9190610a79565b925050819055505b5b50565b6000612710600161041891906109d2565b600260008473ffffffffffffffffffffffffffffffffffffffff1673ffffffffffffffffffffffffffffffffffffffff168152602001908152602001600020546104629190610a03565b90506000600260008473ffffffffffffffffffffffffffffffffffffffff1673ffffffffffffffffffffffffffffffffffffffff1681526020019081526020016000205411156105ab5734600260008473ffffffffffffffffffffffffffffffffffffffff1673ffffffffffffffffffffffffffffffffffffffff16815260200190815260200160002054106105aa578173ffffffffffffffffffffffffffffffffffffffff166108fc600154833461051b9190610a45565b6105259190610a79565b9081150290604051600060405180830381858888f1935050505061054857600080fd5b80346105549190610a45565b600260008473ffffffffffffffffffffffffffffffffffffffff1673ffffffffffffffffffffffffffffffffffffffff16815260200190815260200160002060008282546105a29190610a79565b925050819055505b5b5050565b8073ffffffffffffffffffffffffffffffffffffffff166108fc349081150290604051600060405180830381858888f193505050506105ed57600080fd5b6000600360008373ffffffffffffffffffffffffffffffffffffffff1673ffffffffffffffffffffffffffffffffffffffff1681526020019081526020016000205411156106905734600360008373ffffffffffffffffffffffffffffffffffffffff1673ffffffffffffffffffffffffffffffffffffffff16815260200190815260200160002060008282546106849190610a45565b925050819055506106d5565b34600360008373ffffffffffffffffffffffffffffffffffffffff1673ffffffffffffffffffffffffffffffffffffffff168152602001908152602001600020819055505b50565b6000349050600460009054906101000a900473ffffffffffffffffffffffffffffffffffffffff1673ffffffffffffffffffffffffffffffffffffffff166108fc829081150290604051600060405180830381858888f1935050505061073d57600080fd5b80600260003373ffffffffffffffffffffffffffffffffffffffff1673ffffffffffffffffffffffffffffffffffffffff168152602001908152602001600020600082825461078c9190610a45565b9250508190555050565b6000600360003373ffffffffffffffffffffffffffffffffffffffff1673ffffffffffffffffffffffffffffffffffffffff16815260200190815260200160002054905090565b60026020528060005260406000206000915090505481565b600460009054906101000a900473ffffffffffffffffffffffffffffffffffffffff1681565b60036020528060005260406000206000915090505481565b60005481565b6000600260003373ffffffffffffffffffffffffffffffffffffffff1673ffffffffffffffffffffffffffffffffffffffff16815260200190815260200160002054905090565b60015481565b600080fd5b600073ffffffffffffffffffffffffffffffffffffffff82169050919050565b60006108b68261088b565b9050919050565b6108c6816108ab565b81146108d157600080fd5b50565b6000813590506108e3816108bd565b92915050565b6000602082840312156108ff576108fe610886565b5b600061090d848285016108d4565b91505092915050565b6000819050919050565b61092981610916565b82525050565b60006020820190506109446000830184610920565b92915050565b610953816108ab565b82525050565b600060208201905061096e600083018461094a565b92915050565b7f4e487b7100000000000000000000000000000000000000000000000000000000600052601260045260246000fd5b7f4e487b7100000000000000000000000000000000000000000000000000000000600052601160045260246000fd5b60006109dd82610916565b91506109e883610916565b9250826109f8576109f7610974565b5b828204905092915050565b6000610a0e82610916565b9150610a1983610916565b9250828202610a2781610916565b91508282048414831517610a3e57610a3d6109a3565b5b5092915050565b6000610a5082610916565b9150610a5b83610916565b9250828201905080821115610a7357610a726109a3565b5b92915050565b6000610a8482610916565b9150610a8f83610916565b9250828203905081811115610aa757610aa66109a3565b5b9291505056fea2646970667358221220d4ed6beb288f9b491264c2a4a06a09aa45cc1abf22fbe931bf5ce304f5be73c864736f6c63430008130033",
  "immutableReferences": {},
  "source": "// SPDX-License-Identifier: MIT\npragma solidity >=0.4.22 <0.9.0;\n\ncontract Defi {\n  // 1 ETH : 1000000000000000000\n  uint256 public INVERSE_BASIS_POINT;\n\n  uint256 constant INTEREST = 1;\n\n  uint public gasPrice;\n\n  mapping (address => uint) public investors;\n\n  mapping (address => uint) public borrowers;\n\n  address public owner;\t\t//  \n\n  constructor(){\n    INVERSE_BASIS_POINT = 100; // sol is not support float type yet.\n    owner = msg.sender;\n    gasPrice = 110000000000;\n  }\n\n  function makeDeposit() payable public {\n    uint deposit = msg.value;\n    if(!payable(owner).send(deposit)) {\n\t\t\trevert();\n\t\t}\n    investors[msg.sender] += deposit;\n  }\n\n  function borrow(address receiverAddr) payable public {\n    if(!payable(receiverAddr).send(msg.value)) {\n\t\t\trevert();\n\t\t}\n    if(borrowers[receiverAddr] > 0){\n      borrowers[receiverAddr] += msg.value;\n    }\n    else{\n      borrowers[receiverAddr] = msg.value;\n    }\n    \n  }\n  // gas price     ,    \n  function payBack() payable public {\n    uint256 interestAmount = borrowers[msg.sender] * (INTEREST / 10000);\n    if(borrowers[msg.sender] > 0){ //    \n      if(borrowers[msg.sender] >= msg.value){ //        \n        if(!payable(owner).send(msg.value + interestAmount + gasPrice)) {\n\t\t\t    revert();\n\t\t    }\n        borrowers[msg.sender] -= (msg.value + interestAmount);\n      }\n    }\n  }\n\n  // gas price     ,    .\n  function recoup(address receiverAddr) payable public{\n    uint256 interestAmount = investors[receiverAddr] * (INTEREST / 10000);\n    if(investors[receiverAddr] > 0){ //    \n      if(investors[receiverAddr] >= msg.value){ //       \n        if(!payable(receiverAddr).send(msg.value + interestAmount - gasPrice)) {\n\t\t\t    revert();\n\t\t    }\n        investors[receiverAddr] -= (msg.value + interestAmount);\n      }\n    }\n  }\n\n  function getMyDebt() view public returns(uint){\n    return borrowers[msg.sender];\n  }\n\n  function getMyDeposit() view public returns(uint){\n    return investors[msg.sender];\n  }\n  \n}\n",
  "sourcePath": "/Users/chanhhoo/Desktop/workPlace/4-1class//assignment_code/contract/contracts/Defi.sol",
  "compiler": {
    "name": "solc",
    "version": "0.8.19+commit.7dd6d404.Emscripten.clang"
  },
  "schemaVersion": "3.4.13",
  "updatedAt": "2023-04-10T09:56:10.993Z",
  "networkType": "ethereum",
  "devdoc": {
    "kind": "dev",
    "methods": {},
    "version": 1
  },
  "userdoc": {
    "kind": "user",
    "methods": {},
    "version": 1
  }
}