{
  "contractName": "HelloWorld",
  "abi": [
    {
      "inputs": [
        {
          "internalType": "address",
          "name": "adminAddr",
          "type": "address"
        }
      ],
      "stateMutability": "nonpayable",
      "type": "constructor"
    },
    {
      "inputs": [
        {
          "internalType": "address",
          "name": "",
          "type": "address"
        }
      ],
      "name": "borrowers",
      "outputs": [
        {
          "internalType": "uint256",
          "name": "",
          "type": "uint256"
        }
      ],
      "stateMutability": "view",
      "type": "function"
    },
    {
      "inputs": [],
      "name": "interest",
      "outputs": [
        {
          "internalType": "uint256",
          "name": "",
          "type": "uint256"
        }
      ],
      "stateMutability": "view",
      "type": "function"
    },
    {
      "inputs": [
        {
          "internalType": "address",
          "name": "",
          "type": "address"
        }
      ],
      "name": "investors",
      "outputs": [
        {
          "internalType": "uint256",
          "name": "",
          "type": "uint256"
        }
      ],
      "stateMutability": "view",
      "type": "function"
    },
    {
      "inputs": [],
      "name": "owner",
      "outputs": [
        {
          "internalType": "address",
          "name": "",
          "type": "address"
        }
      ],
      "stateMutability": "view",
      "type": "function"
    },
    {
      "inputs": [],
      "name": "hi",
      "outputs": [
        {
          "internalType": "string",
          "name": "",
          "type": "string"
        }
      ],
      "stateMutability": "pure",
      "type": "function"
    },
    {
      "inputs": [],
      "name": "makeDeposit",
      "outputs": [],
      "stateMutability": "payable",
      "type": "function"
    },
    {
      "inputs": [
        {
          "internalType": "uint256",
          "name": "amount",
          "type": "uint256"
        }
      ],
      "name": "borrow",
      "outputs": [],
      "stateMutability": "payable",
      "type": "function"
    }
  ],
  "bytecode": "0x608060405234801561001057600080fd5b50604051610736380380610736833981810160405281019061003291906100e4565b600160008190555080600360006101000a81548173ffffffffffffffffffffffffffffffffffffffff021916908373ffffffffffffffffffffffffffffffffffffffff16021790555050610111565b600080fd5b600073ffffffffffffffffffffffffffffffffffffffff82169050919050565b60006100b182610086565b9050919050565b6100c1816100a6565b81146100cc57600080fd5b50565b6000815190506100de816100b8565b92915050565b6000602082840312156100fa576100f9610081565b5b6000610108848285016100cf565b91505092915050565b610616806101206000396000f3fe6080604052600436106100705760003560e01c8063a99dca3f1161004e578063a99dca3f146100e7578063bf5d50c414610112578063c392f7661461014f578063c5ebeaec1461017a57610070565b806340732c89146100755780636f7bc9be1461007f5780638da5cb5b146100bc575b600080fd5b61007d610196565b005b34801561008b57600080fd5b506100a660048036038101906100a191906103e7565b610254565b6040516100b3919061042d565b60405180910390f35b3480156100c857600080fd5b506100d161026c565b6040516100de9190610457565b60405180910390f35b3480156100f357600080fd5b506100fc610292565b6040516101099190610502565b60405180910390f35b34801561011e57600080fd5b50610139600480360381019061013491906103e7565b6102cf565b604051610146919061042d565b60405180910390f35b34801561015b57600080fd5b506101646102e7565b604051610171919061042d565b60405180910390f35b610194600480360381019061018f9190610550565b6102ed565b005b6000349050600360009054906101000a900473ffffffffffffffffffffffffffffffffffffffff1673ffffffffffffffffffffffffffffffffffffffff166108fc829081150290604051600060405180830381858888f193505050506101fb57600080fd5b80600160003373ffffffffffffffffffffffffffffffffffffffff1673ffffffffffffffffffffffffffffffffffffffff168152602001908152602001600020600082825461024a91906105ac565b9250508190555050565b60016020528060005260406000206000915090505481565b600360009054906101000a900473ffffffffffffffffffffffffffffffffffffffff1681565b60606040518060400160405280600b81526020017f48656c6c6f20576f726c64000000000000000000000000000000000000000000815250905090565b60026020528060005260406000206000915090505481565b60005481565b3373ffffffffffffffffffffffffffffffffffffffff166108fc829081150290604051600060405180830381858888f1935050505061032b57600080fd5b80600260003373ffffffffffffffffffffffffffffffffffffffff1673ffffffffffffffffffffffffffffffffffffffff168152602001908152602001600020600082825461037a91906105ac565b9250508190555050565b600080fd5b600073ffffffffffffffffffffffffffffffffffffffff82169050919050565b60006103b482610389565b9050919050565b6103c4816103a9565b81146103cf57600080fd5b50565b6000813590506103e1816103bb565b92915050565b6000602082840312156103fd576103fc610384565b5b600061040b848285016103d2565b91505092915050565b6000819050919050565b61042781610414565b82525050565b6000602082019050610442600083018461041e565b92915050565b610451816103a9565b82525050565b600060208201905061046c6000830184610448565b92915050565b600081519050919050565b600082825260208201905092915050565b60005b838110156104ac578082015181840152602081019050610491565b60008484015250505050565b6000601f19601f8301169050919050565b60006104d482610472565b6104de818561047d565b93506104ee81856020860161048e565b6104f7816104b8565b840191505092915050565b6000602082019050818103600083015261051c81846104c9565b905092915050565b61052d81610414565b811461053857600080fd5b50565b60008135905061054a81610524565b92915050565b60006020828403121561056657610565610384565b5b60006105748482850161053b565b91505092915050565b7f4e487b7100000000000000000000000000000000000000000000000000000000600052601160045260246000fd5b60006105b782610414565b91506105c283610414565b92508282019050808211156105da576105d961057d565b5b9291505056fea2646970667358221220955d966f642e0ba3904bfd99da4618d04237782afe1564a7fd5779d41d5a6d3164736f6c63430008130033",
  "immutableReferences": {},
  "source": "// SPDX-License-Identifier: MIT\npragma solidity >=0.4.22 <0.9.0;\n\ncontract HelloWorld {\n\n  uint256 public interest;\n\n  mapping (address => uint) public investors;\n\n  mapping (address => uint) public borrowers;\n\n  address public owner;\t\t//  \n\n  function hi() public pure returns (string memory) {\n        return (\"Hello World\");\n  }\n\n  constructor(address adminAddr){\n    interest = 1; // sol is not support float type yet.\n    \n    owner = adminAddr;\n  }\n\n  function makeDeposit() payable public {\n    uint deposit = msg.value;\n    if(!payable(owner).send(deposit)) {\n\t\t\trevert();\n\t\t}\n    investors[msg.sender] += deposit;\n  }\n\n  function borrow(uint amount) payable public{\n    if(!payable(msg.sender).send(amount)) {\n\t\t\trevert();\n\t\t}\n    borrowers[msg.sender] += amount;\n  }\n}\n",
  "sourcePath": "/Users/chanhhoo/Desktop/workPlace/4-1class//assignment_code/contract/contracts/Defi.sol",
  "compiler": {
    "name": "solc",
    "version": "0.8.19+commit.7dd6d404.Emscripten.clang"
  },
  "schemaVersion": "3.4.13",
  "updatedAt": "2023-04-02T15:44:21.325Z",
  "devdoc": {
    "kind": "dev",
    "methods": {},
    "version": 1
  },
  "userdoc": {
    "kind": "user",
    "methods": {},
    "version": 1
  }
}